:020000041000EA
:1000000000B5324B212058609868022188439860DF
:10001000D860186158612E4B002199600221596106
:100020000121F02299502B49196001219960352056
:1000300000F044F80222904214D00621196600F024
:1000400034F8196E01211966002018661A6600F04E
:100050002CF8196E196E196E052000F02FF8012189
:100060000842F9D1002199601B49196000215960AB
:100070001A491B48016001219960EB211966A021F2
:10008000196600F012F800219960164914480160C1
:100090000121996001BC002800D000471248134993
:1000A000086003C880F30888084703B5996A0420EC
:1000B0000142FBD001200142F8D103BD02B5186610
:1000C0001866FFF7F2FF186E186E02BD00000240BE
:1000D000000000180000070000035F00212200005C
:1000E000F4000018222000A00001001008ED00E03C
:1000F00000000000000000000000000074B24E7A12
:1001000000200420F7010010C3010010C5010010F9
:10011000C1010010C1010010C1010010C101001097
:10012000C1010010C1010010C1010010C701001081
:10013000C1010010C1010010C9010010CB01001065
:10014000CD010010CD010010CD010010CD01001037
:10015000CD010010CD010010CD010010CD01001027
:10016000CD010010CD010010CD010010CD01001017
:10017000CD010010CD010010CD010010CD01001007
:10018000CD010010CD010010CD010010CD010010F7
:10019000CD010010CD010010CD010010CD010010E7
:1001A000CD010010CD010010CD010010CD010010D7
:1001B000CD010010CD010010CD010010CD010010C7
:1001C00000BE00BE00BE00BE00BE00BE00F04BF888
:1001D000103800BEF2EB8871FC15041020160410D4
:1001E0003402001090A31AE700202149086006C8D5
:1001F00081F3088810471F48006800282FD10DA4FC
:100200000ECC002902D000F012F8F9E71A491B4A77
:10021000002000E001C19142FCD1194988471949E9
:1002200088471949884700BEFDE701C901C29A42C3
:10023000FBD3704720160410C0000020B804002033
:10024000181A04100000042000000420181A0410DA
:1002500000100420001004200000000070470B482C
:1002600000F01EFA0047EFF30580C0B270470000AF
:1002700008ED00E0000000D0B80400200CAE002023
:100280007D470010110300106D4800105756000004
:1002900006005250ABB3605398A4001006005250B1
:1002A000861C0302A8A40010060052505422A29DEE
:1002B000B0A4001005005250DE65F468181A04104E
:1002C000F8B5C04606480749091A8B10C90FC91866
:1002D00010B5491003D0044B002B00D0984710BD37
:1002E000B8040020B804002000000000054B10B541
:1002F000002B03D00449054800E000BFFFF7E2FFF0
:1003000010BDC046000000007CAC002070990010B9
:1003100010B506F093FD0121002000F021F80548FA
:1003200003F0F6FD0021002000F01AF8014803F068
:10033000EFFDF0E7C409000010B582B068460C007C
:1003400000F0C2F86B460622991C200006F062FB02
:1003500001222378934302221343237002B010BD7D
:1003600010B5034B0A000100180003F0B1F810BDEE
:100370000C09002010B50400FFF775FF002800D01D
:1003800010BD2100014809F0DBFAF9E7F40800206C
:1003900010B501220221182003F02AF910BDC04631
:1003A000D02210B50D4B120618600D4B12681B7849
:1003B00093420DD05A1E934130225B421340094AAA
:1003C0009446802263449201134302221A6010BDB6
:1003D000054B187803F066F9F9E7C046F0120020E3
:1003E00002AE00201C41014005AE002010B50248BD
:1003F00009F096FA10BDC046FC08002010B5144C58
:100400006379012B03D0200009F0A2FA10BD114B33
:100410001A68002AF7D0104A12681A60D0220F4BCF
:1004200012061B78126893420DD05A1E9341302257
:100430005B4213400A4A944680226344920113436C
:1004400002221A60DFE7074B187803F02BF9DAE78E
:10045000FC080020F01200200409002002AE002059
:100460001C41014005AE0020F8B5040003F034FE45
:10047000FA2206000F00200000230021920006F05F
:100480006DFA8019794104000D008F4210D80DD00B
:10049000FFF7E9FE002804D02000290003F026FE23
:1004A000F8BD2000290003F0DDFCF9E78642EFD912
:1004B00001246442E517EBE710B5024800F00CF8A0
:1004C00010BDC046B0AC002010B50822014906F0AE
:1004D000A1FA10BDB0AC002030B5002589B00400F1
:1004E0000922002101A8009506F08EFA09220021B8
:1004F00005A8049506F088FA4B236A4668461370EF
:1005000004A90D2209F0ECF9152108222000694404
:1005100006F080FA09B030BDEFF3108072B6034ADE
:100520001368002BFCD0BFF35F8F70472C0100D005
:10053000BFF35F8F0022024B1A6080F31088704770
:100540002C0100D070B5EFF3108C72B60D4D2B68F6
:10055000002BFCD0BFF35F8F0724CB08C618C05C0C
:1005600001230C40A3401C000440034207D1184360
:100570003070BFF35F8F2C608CF3108870BD10005B
:1005800004F076F92C0100D0F8B54746CE468846EF
:1005900080B5EFF3108C72B6214D2C68002CFCD086
:1005A000BFF35F8F9A422CD8D4080727055D061940
:1005B00001241740BC402C421FD007210127894647
:1005C00009E0D408055D06194C4639001440A140E5
:1005D0000C00294211D001329342F2D20120404254
:1005E000BFF35F8F00220E4B1A608CF31088002837
:1005F0000FDBC0BCB946B046F8BD254310003570CE
:10060000EEE7BFF35F8F00232B608CF3108801208F
:1006100040424346002BECD0089804F029F9C0462C
:100620002C0100D030B5EFF3108C72B60A4C236861
:10063000002BFCD0BFF35F8F072301220B409A40B1
:10064000CD08435D93434355BFF35F8F0023236081
:100650008CF3108830BDC0462C0100D0024B1868C6
:100660008007C00F7047C04600C006400021044B01
:10067000044ABFF35F8F02C39342FAD17047C0466A
:10068000000100D0800100D0044A1078431CDBB286
:10069000172B00D9102313707047C046E8030020C1
:1006A000142310B50100188804331B88984710BD27
:1006B000162310B50100188802331B88984710BD17
:1006C000F8B54746CE4680B50F1E19D0142399467B
:1006D000043304000025012698464B4618884346FB
:1006E00021681B88984701C4431E98410135404248
:1006F0000640AF42F1D13000C0BCB946B046F8BDAB
:100700000126F8E710B5052004F028FA030C642050
:100710000349584305F0A2FD0338FDD210BDC04681
:100720009A3B0000F0B54E464546DE465746E0B5DA
:10073000624E050083B03100614806F017FC0028C6
:1007400009D131005F4806F011FC002800D1B2E069
:1007500006225C4801E00722594884235A4C1B01B9
:10076000EC509A46FF23002120602372E37122712E
:1007700006F0DEFB40B2A071002800DA72E0310022
:10078000206806F027FC40B2421D60714F4BC0014B
:10079000120302431A4030234D48C8270168B84667
:1007A0008B434C4980270B600368012084469843A3
:1007B00008602068802301009B0138310B438021B1
:1007C000490419600621BF02B946615693464B00A1
:1007D0005B18DB00C318984447464A463A60CC226F
:1007E0009046984442465F4617601A00C027D032B0
:1007F000BF021760384ADC331A6063461D2200933B
:1008000006F0ACFC1820217902F0B4FE1D202179FD
:1008100002F0B0FE01220021182002F0C3FE0121E7
:10082000182002F0D1FE0621615623684A005218B2
:10083000D2009B18294AD8331A60002006F0DAFC4F
:10084000E071002006F0D6FCE27943B22372134334
:1008500000201B0606D403B0F0BCBB46B246A94636
:10086000A046F0BD5346EC58002C24D0062161561A
:1008700000290CDB0522A256531C05D0310020684C
:1008800006F00EFC06216156206806F041FB0720A9
:100890002056002803DB06F0A3FCFF23E3710820A9
:1008A0002056002803DB06F09BFCFF2323728423E1
:1008B00000221B01EA5006204042CCE78C99001030
:1008C0000000305000002050C0080020FFFFFF9FB4
:1008D00078C0014078D0014018771C2401E0000066
:1008E000F0B557464546DE464E46E0B585B00F00AA
:1008F00015000293002900D1ABE084231B01C458EA
:100900008022D02392041B069A611820217902F0DC
:1009100031FE029B002B00D0ABE006210122615684
:1009200090468A40CC262068B4460368934303600F
:100930000523E35699464B005B18DB00C21894442C
:1009400062461268D03392464A4601321603039635
:10095000C64EC318B34656465A4616403200039E4A
:10096000164332004E46F60132436646326080221C
:1009700052011343802212061A601A6080235B041E
:100980001A0006F0A7FB06214646615623680A1D99
:10099000964032001868464602431A600A00083240
:1009A000964032001868072602431A608800EA0061
:1009B0001818013A02614A005218D200AC499A183C
:1009C000D832116002990161AA4911601F21607932
:1009D000014011604246A657A020B240A649C0057A
:1009E0004250A64A844690468020B1018C4440047F
:1009F00041440A680242FCD1A14AF6029A18511EEB
:100A00008A41A04992040E409F4932430A436146FD
:100A10000F6019006646103171600121AD08B560A4
:100A2000F26098601A680A4380211A6049049A6843
:100A30000A42FCD006210122615620688A400368E0
:100A400093430360002318220093013306F086FBD2
:100A5000F0E0002B00D106E184231B01C458802262
:100A6000D02392041B069A611820217902F082FD9E
:100A7000029F06210122615690468A40CC262068BA
:100A8000B4460368934303600523E35699464B003D
:100A90005B18DB00C218944462461268D033924659
:100AA0004A46053216030396704EC318B34656469F
:100AB0005A4616403200039E164332004E46F60157
:100AC000324366463260802252011343802212066E
:100AD0001A601A6080235B041A0006F0FBFA0623F2
:100AE0004046E35622689946043398400300116853
:100AF00040460B4313604B4608339840030011688F
:100B00005B480B43494613608900EB005118013BD9
:100B10000B614B465B004B44DB00D318D8331860A5
:100B20000E98401BC00001380861524919601F210E
:100B30006079014019600723E3564F489B464346BE
:100B400059468B40A021C9050B505B469B019C4632
:100B5000039380238A4649495B046144086818422C
:100B6000FCD10823E35644489C46012361468B4050
:100B700051460B50A021C9058A4640496346884624
:100B800080219B019A444904434418680842FCD1DF
:100B9000A026F605B0463A4B039ED018431E984156
:100BA0005B46464437601700D902364B10379B46E8
:100BB000194083041943344B77601943AB08B36081
:100BC000F16080218902884661465E468004C90240
:100BD0003140404408432D49564601430E98800851
:100BE000C31A100020303060029840197060B36062
:100BF000484601238340F16011680B4313600723CB
:100C0000234AE356944680229B01634452041968A8
:100C10001142FCD108201E4B20569C4680238001A7
:100C200060445B0401681942FCD100212A0002984B
:100C300005F0EAFE0621615623684A005218D200E8
:100C40009B18144AD8331A60D02380221B069204C2
:100C50005A61FFF757FD002005B0F0BCBB46B24615
:100C6000A946A046F0BD05204042F5E77F00FEFF03
:100C70002060000040600000440400000C000050B0
:100C80000000E0AFFF7F00FF190040002900400096
:100C90001000005003A0000010B5172002F0D2FC95
:100CA000D024802324061B04002201216362172024
:100CB00002F078FC182002F0C5FC80235B0463621C
:100CC0001920A36102F0BEFC80239B046362636170
:100CD00010BDC04670B5D024802524062D04A56122
:100CE000142003F015F96561FA2003F011F91820BA
:100CF00002F0A8FC80235B04A36270BD002300B552
:100D000085B003930A4BD2021A4008230907114306
:100D1000084A00930A4302AB52BA0021029204220D
:100D2000FFF7DEFD002801D1039840BA05B000BDF1
:100D300000F8FF0F0400004010B586B0012916D05E
:100D4000154BD2021A400907144B0A43134303936D
:100D5000082303AC0093042223000021FFF7C0FD09
:100D60000123002801D19B00E05806B010BD0A4BBA
:100D7000D2021A400A4B03AC134303930C23042200
:100D8000009300212300FFF7ABFD0028EDD10223E3
:100D90009B00E058E9E7C04600F8FF0F0400004060
:100DA0000800005010B586B0012916D0154BD202AC
:100DB0001A400907144B0A4313430393082303AC57
:100DC0000093042223000021FFF78AFD012300285D
:100DD00001D19B00E05806B010BD0A4BD2021A4068
:100DE0000A4B03AC134303930C230422009300210A
:100DF0002300FFF775FD0028EDD102239B00E0588A
:100E0000E9E7C04600F8FF0F02000040060000506E
:100E100010B586B0012916D0154BD2021A40090729
:100E2000144B0A4313430393082303AC0093042297
:100E300023000021FFF754FD0123002801D19B006E
:100E4000E05806B010BD0A4BD2021A400A4B03AC60
:100E5000134303930C230422009300212300FFF784
:100E60003FFD0028EDD102239B00E058E9E7C04692
:100E700000F8FF0F0100004005000050F0B55BBA1C
:100E8000DE46454657464E46E0B585B0039384237B
:100E9000604CD2022240090711435F4A1B01C4582B
:100EA0000A43D02352BA0292802201261B069204E2
:100EB0009A611820217902F05DFB0621320061560B
:100EC00020688A40036802AD934303600523E3561C
:100ED0009C464B005B18DB00C718CC379A463B6832
:100EE000984663465A1C13039B464C4B994643460F
:100EF0004A4613405A461A436346DB011A43534697
:100F00003A608022D033C318520113438022120664
:100F10001A601A6080235B041A0006F0DBF80621D1
:100F20003700615623680A1D97403A001868370059
:100F300002431A600A00083297403A0018680727EF
:100F400002431A603F228800181802614A005218B2
:100F5000D20033499A18D832116000210161314919
:100F600011601F21607901401160E757A021BE4048
:100F70002D4AC9058E50A022B901D2058E182B4AE0
:100F800080209446400461440A680242FCD1284A09
:100F9000FF021740274A35609A18511E8A411900EE
:100FA00010317160022192041743234AB1603A4321
:100FB000F26098601A6801390A4380211A60490476
:100FC0009A680A42FCD006210122615620688A40B4
:100FD000036893430360002318220093013306F053
:100FE000BDF80621615623684A005218D2009B18AA
:100FF000124AD8331A60D02380221B0692045A6109
:10100000FFF780FB002005B0F0BCBB46B246A94606
:10101000A046F0BD00F8FF0F040000C07F00FEFFF7
:101020002060000040600000440400000C000050FC
:10103000FF7F00FF0000E0AF1900400003A00000A8
:10104000F0B54546DE4657464E46E0B5684CD202FE
:1010500022400C072243674C85B0224302AD029226
:101060006B6001290AD10824634944506349425006
:10107000634A8350852382681B01C25084231B016D
:10108000C4588022D02301261B0692049A6118209E
:10109000217902F06FFA06213200615620688A40F9
:1010A0000368934303600523E3569C464B005B189B
:1010B000DB00C718CC379A463B68984663465A1CF3
:1010C00013039B464F4B994643464A4613405A46A4
:1010D0001A436346DB011A4353463A608022D033F9
:1010E000C31852011343802212061A601A6080232B
:1010F0005B041A0005F0EEFF0621370061562368F5
:101100000A1D97403A001868370002431A600A0027
:10111000083297403A001868072702431A603F22B6
:101120008800181802614A005218D20036499A18ED
:10113000D832116000210161344911601F216079AA
:1011400001401160E757A021BE40314AC9058E50C9
:10115000A022B901D2058E182E4A80209446400460
:1011600061440A680242FCD12B4AFF0217402B4A15
:1011700035609A18511E8A411900103171600221A0
:1011800092041743264AB1603A43F26098601A68A5
:1011900001390A4380211A6049049A680A42FCD046
:1011A00006210122615620688A4003689343036048
:1011B000002318220093013305F0D0FF0621615669
:1011C00023684A005218D2009B18164AD8331A6076
:1011D000D02380221B0692045A61FFF793FA002065
:1011E00005B0F0BCBB46B246A946A046F0BDC0461D
:1011F00000F8FF0F040000C04C0800004408000085
:10120000480800007F00FEFF2060000040600000F2
:10121000440400000C000050FF7F00FF0000E0AF1E
:101220001900400003A00000F0B54546DE465746D1
:101230004E46E0B5684CD20222400C072243674C70
:1012400085B0224302AD02926B6001290AD10824C5
:101250006349445063494250634A835085238268FE
:101260001B01C25084231B01C4588022D0230126B5
:101270001B0692049A611820217902F07BF906215D
:101280003200615620688A40036893430360052357
:10129000E3569C464B005B18DB00C718CC379A46D8
:1012A0003B68984663465A1C13039B464F4B99462E
:1012B00043464A4613405A461A436346DB011A43E3
:1012C00053463A608022D033C31852011343802220
:1012D00012061A601A6080235B041A0005F0FAFEF9
:1012E00006213700615623680A1D97403A001868A6
:1012F000370002431A600A00083297403A00186823
:10130000072702431A603F228800181802614A002A
:101310005218D20036499A18D83211600021016162
:10132000344911601F21607901401160E757A02105
:10133000BE40314AC9058E50A022B901D2058E188F
:101340002E4A80209446400461440A680242FCD13F
:101350002B4AFF0217402B4A35609A18511E8A41CA
:10136000190010317160022192041743264AB160BE
:101370003A43F26098601A6801390A4380211A6082
:1013800049049A680A42FCD006210122615620686D
:101390008A400368934303600023182200930133BB
:1013A00005F0DCFE0621615623684A005218D2007F
:1013B0009B18164AD8331A60D02380221B06920449
:1013C0005A61FFF79FF9002005B0F0BCBB46B2465A
:1013D000A946A046F0BDC04600F8FF0F020000C0BD
:1013E0004C08000044080000480800007F00FEFF91
:1013F0002060000040600000440400000C00005029
:10140000FF7F00FF0000E0AF1900400003A00000D4
:10141000F0B54546DE4657464E46E0B5684CD2022A
:1014200022400C072243674C85B0224302AD029252
:101430006B6001290AD10824634944506349425032
:10144000634A8350852382681B01C25084231B0199
:10145000C4588022D02301261B0692049A611820CA
:10146000217902F087F806213200615620688A400F
:101470000368934303600523E3569C464B005B18C7
:10148000DB00C718CC379A463B68984663465A1C1F
:1014900013039B464F4B994643464A4613405A46D0
:1014A0001A436346DB011A4353463A608022D03325
:1014B000C31852011343802212061A601A60802357
:1014C0005B041A0005F006FE06213700615623680A
:1014D0000A1D97403A001868370002431A600A0054
:1014E000083297403A001868072702431A603F22E3
:1014F0008800181802614A005218D20036499A181A
:10150000D832116000210161344911601F216079D6
:1015100001401160E757A021BE40314AC9058E50F5
:10152000A022B901D2058E182E4A8020944640048C
:1015300061440A680242FCD12B4AFF0217402B4A41
:1015400035609A18511E8A411900103171600221CC
:1015500092041743264AB1603A43F26098601A68D1
:1015600001390A4380211A6049049A680A42FCD072
:1015700006210122615620688A4003689343036074
:10158000002318220093013305F0E8FD062161567F
:1015900023684A005218D2009B18164AD8331A60A2
:1015A000D02380221B0692045A61FFF7ABF800207B
:1015B00005B0F0BCBB46B246A946A046F0BDC04649
:1015C00000F8FF0F010000C04C08000044080000B4
:1015D000480800007F00FEFF20600000406000001F
:1015E000440400000C000050FF7F00FF0000E0AF4B
:1015F0001900400003A00000F0B50500481E1E00C1
:1016000043425841194F8000D2023A403718090727
:101610003A430A43802144424441C9050A43032115
:10162000231D9B00EB185A60F21C8A4305340432D8
:10163000121883B0A3000092002104222800EB18A6
:10164000FFF74EF9041E0BD12900089B1C3199426B
:1016500003D03200180005F0DDF9200003B0F0BD22
:101660002100034805F0DEFBF7E7C04600F8FF0F56
:1016700070990010F0B54E464546DE4657469146F5
:101680000322E0B59846033389B0934305000E006A
:101690000393022924D02800129B1C3098423FD08B
:1016A0001900434636071E434B46DF02234B424692
:1016B0001F40C0233E431B063343AB6105F0AAF92C
:1016C00029000023039A2800043218310093FFF701
:1016D00007F909B0F0BCBB46B246A946A046F0BD2A
:1016E000174B20279B460823164C9A4601E0013CE5
:1016F00010D35B4605935346042200930021280033
:1017000005ABFFF7EDF8002800D106980742EED0B0
:10171000002CC0D10C4805F0E5FA06204042D8E77D
:101720004B46DF02054B36071F4043461E43C0238E
:1017300037431B063B43AB61C2E7C04600F8FF0FCF
:1017400004400040E70300008C9B0010836870B5E4
:10175000CC0B0500E403A3420BD063401A0E19D151
:10176000FF22120413420CD1FF221202134201D1B4
:10177000AC6070BD012128000A4A230AFFF748FE29
:10178000F6E7230C01212800074AFFF741FEAB686A
:101790006340E9E7230E0121044AFFF739FEAB68F5
:1017A0006340DDE70A0001000B0001000C000100AE
:1017B000F0B5C646033083089C4600B58E1E002B4C
:1017C0001ED00B00072233431A4254D16346013B1B
:1017D0009A4250D2C3089846424630000B00D200CD
:1017E0008F1830CB30C0BB42FBD14346B4185F00EA
:1017F0008B18BC4504D01A885B881B0413432360F4
:1018000008000B888A1D5BBA73808B1C1B680A302A
:101810001BBA7360126812BAB260006800BAF06056
:10182000452B03D0300080BCB846F0BD082AF9D162
:101830000B000A000D00B232AE3310681B882E3543
:101840002A691C18944222D83A31C91808188142D2
:1018500046D20027002404E0DD2A1CD0C9188842A3
:101860002CD94B780233CA189042F7D30A78302A21
:10187000F2D10C00F2E763463200980030189388EA
:1018800054881B04234308C28242F8D1B8E70123DD
:101890005B42B360C6E78A1C90468A78002ADDD195
:1018A00042465278502AD9D142469278F22AD5D16E
:1018B0004246D278012AD1D10F00CFE7631E9C4166
:1018C000A400002F01D002221443AA8BD20601D516
:1018D000012214438422B15CB1520432B454A1E712
:1018E0000024F2E7F8B5CE4647460500894680B5A4
:1018F000002932D001230121204AFFF789FD01236D
:10190000012128001D4AFFF783FD03230327984682
:10191000012640240BE00120FEF7A6FD013C330028
:1019200001212800154AFFF773FD002C10D001217A
:101930002800124AFFF76CFA0028ECDB3B0003405A
:101940004345E8D1FF28E6D0C0BCB946B046F8BD53
:1019500049460B4805F066FAF6E700230121074ADD
:10196000FFF756FD002301212800044AFFF750FD30
:101970000023012798460026CBE7C0461F00010040
:10198000A0990010F0B5D6464F464646C0B5C37C78
:1019900005000F00924682B0002B04D1006801F0D0
:1019A00075FC002865D0280001F076FCAB7C002B8C
:1019B00005D101212800FFF795FF0123AB74EB7CD3
:1019C000002B64D0FA24A40002E0013C002C50D08B
:1019D000082200212800FFF7AFF9431CF5D0C3050A
:1019E00045D5C02203035B0D591ED200914200D39E
:1019F000B7E0800700D5B4E02C001C34002202219F
:101A000028000094FFF7F8FD002828D1A98BEA8B65
:101A100000292AD00123EB74664B9C460B005340EF
:101A2000634500D0A4E0D24392B2914200D0A5E039
:101A30000B2900D8A8E02423EB5CAB732123EA5CDC
:101A4000123B1340022B17D90C2900D1A8E0012B1F
:101A50005BD0022B36D0002B47D00B20404202B087
:101A6000E0BCBA46B146A846F0BD002AD2D1002358
:101A7000EB7401204042F2E72522AA5C94466646B8
:101A80006A7BB21AD2B2142ADED86E73DCE7042263
:101A900000212800FFF786F983B29846464B0004E0
:101AA00099461B88040C434502D0862323424DD11E
:101AB0004346002B4FD14B4642461A80A40600D520
:101AC00080E7D6E7102968D92323EA5C0220A21810
:101AD000D3789B000433D31892781C1BD2070C1BBD
:101AE000144352463C601360B9E71B295ED9233387
:101AF000EB5C2D8AE3185A8995424BD1524610333C
:101B00001C1B0C1B3C601360A9E710294BD9232335
:101B1000EB5CE318DA78920004329B181A7B1C1BEA
:101B2000091B882A33D15A7B6C2A30D1DA7C002AEF
:101B300027D11A7D102A24D15A7D182A21D1524644
:101B40001839183339600120136088E721001B48D9
:101B500005F068F9ACE7042200212800FFF764FBD8
:101B6000A9E7012301212800154AFFF751FC7EE770
:101B7000144805F057F90120404270E70220404226
:101B80006DE70A2040426AE70320404267E70920E8
:101B9000404264E70620404261E7072040425EE79A
:101BA000042040425BE70820404258E705204042BD
:101BB00055E7C046FFFF0000FCAD0020C4990010AF
:101BC0000D000100F0990010F0B5DE4657464E4674
:101BD00045460400E0B585B09A468946934601F033
:101BE0005BFBA37C002B05D101212000FFF77AFECF
:101BF0000123A374A37B002B24D02B4E2B4FB36A5D
:101C000098460EE0A17B002903D1227B637B93429F
:101C10001CD14346ED1ABD423ED8FA208000FEF7A3
:101C2000A9FB200003AA02A9B56AFFF7ABFE0128B1
:101C3000E8D103990298FFF7BBFD0100200001F0F5
:101C400031FBDFE7227B637B9342D6D05B46504675
:101C50000C3399B20180C943027141805146484614
:101C6000487100208871494602394D426941554604
:101C700049000C310132E971288168810221227307
:101C8000200000220095FFF7F5FC05B0F0BCBB4634
:101C9000B246A946A046F0BD637B227B044805F00E
:101CA000C1F801204042F0E70040054040420F00EB
:101CB0001C9A0010F0B5454657464E46DE46924601
:101CC0001A0098468023E0B51C320500894683B08F
:101CD0001B019A421ED85246826242461204038A6F
:101CE000120CC2620D9A01339BB2120303820A43A3
:101CF0001B04134303630023424643630C993830AB
:101D000004F088FE2B004246002128001C331032CC
:101D1000FFF75AFF274E284AB76AB36ADB1B934284
:101D20002ED8264B9B4610E0022820D0002803DB4B
:101D30000100584605F076F8FA208000FEF71AFBFD
:101D4000B36A1D4ADB1B93421AD86946280001AAD0
:101D5000FFF718FE041E23D00128E5D10199009851
:101D6000FFF726FD0100280001F09CFAE4E7009946
:101D7000019B4A0028685208C90F01F0DBF9DBE734
:101D800043465246494601240D4805F04BF864424B
:101D9000200003B0F0BCBB46B246A946A046F0BD49
:101DA000009A424500D9424601990C9807F0D8FCA8
:101DB000EEE7C046004005403F420F00409A001049
:101DC0006C9A0010F0B5454657464E46DE469246A0
:101DD0001A0098468023E0B51C320500894683B07E
:101DE0001B019A421BD85246038A826201339BB27E
:101DF000038242461B040B43036300231204120CAC
:101E0000C262436342460C99383004F003FE2B0053
:101E10004246002128001C331032FFF7D5FE274E22
:101E2000274AB76AB36ADB1B93422ED8254B9B46E1
:101E300010E0022820D0002803DB0100584604F0FF
:101E4000F1FFFA208000FEF795FAB36A1C4ADB1B0B
:101E500093421AD86946280001AAFFF793FD041E91
:101E600023D00128E5D101990098FFF7A1FC0100DA
:101E7000280001F017FAE4E70099019B4A0028685E
:101E80005208C90F01F056F9DBE74346524649466E
:101E900001240D4804F0C6FF6442200003B0F0BCEA
:101EA000BB46B246A946A046F0BD009A424500D9BD
:101EB000424601990C9807F053FCEEE700400540BC
:101EC0003F420F00409A00106C9A0010F8B5CE46C1
:101ED000474604000D0080B5012900D1D6E1D04B62
:101EE00090279846FF01C02641462000FFF72EFCB0
:101EF0003A0001212000FEF78BFFA3687605B3426C
:101F000010D073401A0E00D0DBE0FF2212041342FF
:101F100000D0E3E0FF221202134200D0EEE0C02323
:101F20005B05A36041462000FFF710FC3A00012149
:101F30002000FEF76DFFC022A368520506009146FF
:101F4000934210D053401A0E00D094E1FF221204A5
:101F5000134200D083E1FF221202134200D076E147
:101F6000C0235B05A360F60700D497E1012D00D1E3
:101F700091E1AC4DAC4E31002000FFF7E7FB0323AD
:101F80002A0001212000FFF743FAC022A36852056E
:101F90009146934210D053401A0E00D04CE1FF22DC
:101FA0001204134200D02FE1FF221202134200D08C
:101FB00022E1C0235B05A36031002000FFF7C6FBD0
:101FC0002A0001212000FEF723FFC022A36852054A
:101FD0009146934210D053401A0E00D001E1FF22E7
:101FE0001204134200D0F0E0FF221202134200D08C
:101FF000E3E0C0235B05A36041462000FFF7A6FB9A
:102000003A00C027002301212000FFF701FAA3684E
:102010007F05BB4210D07B401A0E00D0C4E0FF22E7
:102020001204134200D0B3E0FF221202134200D088
:10203000A6E0C0235B05A360C0270120FEF714FAC9
:1020400031002000FFF782FB01232A00012120003C
:10205000FFF7DEF9A3687F05BB420FD07B401A0E65
:1020600000D084E0FF221204134200D073E0FF226C
:102070001202134267D1C0235B05A3603100200028
:10208000FFF764FB2A00C02501212000FEF7C0FEF7
:10209000A3686D05AB420DD06B401A0E4AD1FF22EA
:1020A000120413423AD1FF22120213422ED1C0234E
:1020B0005B05A3600120FEF7D7F9C0BCB946B04666
:1020C000F8BD1823594A01212000FFF7A1F9FF228A
:1020D000A36812047340134200D11BE7C023544A83
:1020E0005B0101212000FFF793F9C023A2685B0583
:1020F0005340FF221202134200D110E7C0230121F6
:1021000020004C4A5B03FFF783F908E7C023012155
:102110002000484A5B03FFF77BF9C8E7C023444A25
:102120005B0101212000FFF773F9C023A2685B0562
:102130005340B8E71823012120003C4AFFF768F913
:10214000A3686B40ABE7C02301212000394A5B0341
:10215000FFF75EF98FE7C023354A5B0101212000BC
:10216000FFF756F9C023A2685B0553407FE71823A9
:10217000012120002D4AFFF74BF9A3687B4071E74E
:10218000C023012120002B4A5B03FFF741F950E7F0
:10219000C023274A5B0101212000FFF739F9C02342
:1021A000A2685B0553403FE71823012120001F4A26
:1021B000FFF72EF9A3687B4031E7C02301212000FF
:1021C0001C4A5B03FFF724F913E7C023184A5B019D
:1021D00001212000FFF71CF9C023A2685B055340D2
:1021E00002E71823114A01212000FFF711F94A469E
:1021F000A3685A401300F2E6C023012120000D4AD3
:102200005B03FFF705F9D4E6C023094A5B0101210E
:102210002000FFF7FDF8C023A2685B055340C3E62A
:102220000048101808440000084410180C00010071
:102230000B0001000A00010018231A4A01212000A6
:10224000FFF7E6F84A46A3685A401300A7E6C02302
:1022500001212000144A5B03FFF7DAF880E6C0236F
:10226000124A5B0101212000FFF7D2F8C023A268C7
:102270005B0553406FE618230A4A01212000FFF74F
:10228000C7F84A46A3685A4013005FE6E027084BA8
:10229000BF01984627E6074D074E6CE6074804F055
:1022A00021FD63E60C0001000A0001000B000100A3
:1022B000003810180834000008341018989A0010DC
:1022C00030B50400174D83B06946200001AAFFF71E
:1022D00059FB0100431C10D0031DF5D0012817D075
:1022E00002280CD0280004F09DFD6946200001AAB8
:1022F000FFF748FB0100431CEED103B030BD00994D
:10230000019B4A0020685208C90F00F013FFDBE769
:1023100001990098FFF74CFA0100200000F0C2FF7D
:10232000D2E7C046B49A001030B515004C004A08F8
:10233000022183B02140069C009301942B00FFF7FB
:10234000B9FC03B030BDC04610B50400002909D067
:10235000837C002B00D110BD002300218374FFF784
:10236000C1FAF8E700F098FFA37C002BF3D101211C
:102370002000FFF7B7FA0123A374ECE7F0B5DE46BF
:1023800057464E464546E0B5D34B89B09B6A04009C
:1023900043600391FEF7C6F9002812D1FEF77CFCDA
:1023A0000A25FEF797FCCD4E142200212000FEF7EF
:1023B000A5FCB04212D00120013DFEF755F8002DDA
:1023C000F2D10626C64804F08DFC7642300009B0F2
:1023D000F0BCBB46B246A946A046F0BD0022002193
:1023E0002000C04BFEF74AFD0028EAD10022002160
:1023F0002000FEF7A1FC04231D2200212000FFF78E
:1024000007F80028DDD19923042200212000FEF7DF
:10241000FFFF0028D5D1BE23062200212000FEF7B1
:1024200003FF061ECDD1082301212000AE4AFEF78E
:10243000EFFF0A25402701212000AB4AFEF7E8FC08
:1024400007420BD10120013DFEF70EF8002DF2D11D
:102450000626A64804F046FC7642B7E70023A24AC7
:1024600001212000FEF7D4FF2000A149FFF76EF9FB
:10247000E022C025012120009201FEF7C9FCA368DB
:102480006D05AB4213D06B401A0E01D000F0F1FC89
:10249000FF221204134201D000F0DEFCFF221202E0
:1024A000134201D000F0CFFCC0235B05A3602000E5
:1024B0008F49FFF74BF9E022012120009201FEF73E
:1024C000A7FCC027A36805007F05BB4213D07B4053
:1024D0001A0E01D000F0ADFCFF221204134201D00D
:1024E00000F09AFCFF221202134201D000F08BFC94
:1024F000C0235B05A360ED0701D400F05FFD200061
:102500007C49FFF723F99022C02501212000D20148
:10251000FEF77EFCA3686D05AB4213D06B401A0E2C
:1025200001D000F066FCFF221204134201D000F03B
:1025300053FCFF221202134201D000F044FCC023DE
:102540005B05A36020006B49FFF700F99022012191
:102550002000D201FEF75CFCC027A36805007F05C0
:10256000BB4213D07B401A0E01D000F022FCFF22A8
:102570001204134201D000F00FFCFF22120213429A
:1025800001D000F000FCC0235B05A360ED0701D47F
:1025900000F019FDC02502212000FFF797FCA36879
:1025A0006D05AB4210D06B401A0E00D0E2E3FF2263
:1025B0001204134200D0D1E3FF221202134200D0D2
:1025C000C4E3C0235B05A360C025032301212000D1
:1025D000494AFEF735FDA3686D05AB4210D06B404C
:1025E0001A0E00D0A9E3FF221204134200D098E390
:1025F000FF221202134200D08BE3C0235B05A360CD
:10260000C0250023012120003C4AFEF719FDA368E4
:102610006D05AB4210D06B401A0E00D070E3FF2264
:102620001204134200D05FE3FF221202134200D0D3
:1026300052E3C0235B05A360314B324A9A46324BCA
:102640005244D15C314B53445B781B020B43984698
:10265000FA235B00984534DA2D4BD35C002B30D144
:102660004346502B2DDD2B4B2B4F50259B4657447B
:1026700002E00135A84524DD09225946781B07F000
:10268000C5F80028F5D140235B4253449946DB232B
:102690009B0200259846290020002F00FFF756F8DE
:1026A0004B464037DB196A04009301214023200088
:1026B000520CFEF7DFFF002806D1474504D03D004D
:1026C000E9E7164804F00EFB154B00279946C02396
:1026D0009B009B46134D38E000400540ADBEEDFE2B
:1026E000D89A0010B30402000E000100409B0010B5
:1026F000003810180048101810C0000044C0000036
:1027000024A600109E6803000E030000AC6B0300BB
:102710000D030000F89A0010AB6B0300049B00103F
:10272000549C0010FCFC0700FFF710F84B466A04AD
:102730000093012100232000520CFEF79BFF00288C
:1027400017D140239C464035E14440372900200002
:102750005F45E9D8FEF7FAFF4B466A040093012172
:1027600040232000520CFEF785FF002801D15F4571
:10277000E7D1F025A368ED02AB4210D06B401A0EF2
:1027800000D0A0E2FF221204134200D090E2FF2208
:102790001202134200D083E2F023DB02A360C025C3
:1027A000DD4B01212000DD4AFEF74AFCA3686D05E0
:1027B000AB4210D06B401A0E00D068E2FF22120428
:1027C000134200D057E2FF221202134200D04AE225
:1027D000C0235B05A36001212000FFF777FB2000E9
:1027E000CF49FEF7B3FFCF4A01212000FEF710FBCF
:1027F000C022A368520505009046934210D0534072
:102800001A0E00D024E2FF221204134200D013E279
:10281000FF221202134200D006E2C0235B05A36030
:1028200003232B40012B02D0BF4804F05BFA2000A9
:10283000BE49FEF78BFFE022012192012000FEF746
:10284000E7FAC022A368520505009046934210D0D3
:1028500053401A0E00D0DCE1FF221204134200D0D4
:10286000CBE1FF221202134200D0BEE1C0235B0580
:10287000A360ED0700D5B4E1FA258023AD009846AA
:1028800006E00120013DFDF7EFFD002D00D155E3ED
:1028900001212000A64AFEF7BBFA43460342F0D0CE
:1028A000C025A3686D05AB4210D06B401A0E00D056
:1028B0002EE3FF221204134200D01DE3FF22120276
:1028C000134200D010E3C0235B05A360C025F023B2
:1028D00001212000974AFEF7B3FBA3686D05AB42C8
:1028E00010D06B401A0E00D0F5E2FF221204134202
:1028F00000D0E4E2FF221202134200D0D7E2C0234C
:102900005B05A3602023012120008B4AFEF780FD98
:10291000FA252023AD00984606E00120013DFDF791
:10292000A3FD002D00D110E3082200212000FEF7B6
:1029300003FA43460342F0D00121804A2000FEF70B
:1029400067FA0222C3B2134301217C4A2000FEF73A
:102950005FFD0823F02200212000FEF759FD02232D
:102960000121734A2000FEF753FD01212000744A23
:10297000FEF74EFAC30700D490E20F230121714AFB
:102980002000FEF745FD002301216E4A2000FEF7DE
:102990003FFD01216B4A2000FEF73AFA0422002194
:1029A0002000FEF7FFF9C30700D570E2C025A36839
:1029B0006D05AB4210D06B401A0E00D008E1FF222B
:1029C0001204134200D0F7E0FF221202134200D09B
:1029D000EAE0C0235B05A360C025012120005A4A1C
:1029E000FEF7AAF9A3686D05AB4210D06B401A0E32
:1029F00000D0D0E0FF221204134200D0BFE0FF223B
:102A00001202134200D0B2E0C0235B05A360200095
:102A100000F042FCA37C002B00D1A1E04B4B250031
:102A200019003835082208312800994603F0F2FFD2
:102A3000474BF622DB212364200000239200890209
:102A40006264A36451444C3003F0E4FFFC23082289
:102A50009B000221FF3220000095FFF7B3F94946A1
:102A600013221431280003F0D5FF83221323002101
:102A7000200000955200FFF7A5F9A36B002B00D0B2
:102A800001E20B223349280003F0C4FF00239846DB
:102A900042464333E2540133E2540133E2540133FA
:102AA000E2540192434608220F330221FF322000F4
:102AB0000095FFF7FFF806222749280003F0AAFF38
:102AC0003E230122E25442460133E2540133E254F0
:102AD0000133E2540192434608220A3302212000C6
:102AE0000095FF32FFF7E6F8039B002B00D133E29D
:102AF000200003990622463006F032FE0E222800FE
:102B0000164903F087FF08221423022120000095B4
:102B1000FF32FFF757F959E4C0003FFFFCFF000008
:102B200008341018083400002C9B001000381018CE
:102B30000E00010024A00000080001001E0001009A
:102B40001F0001000F00010008850000E09B00103D
:102B500006100200B49B0010C09B0010C89B001020
:102B600001212000FEF7BEFE0123A37456E7C02317
:102B700001212000EB4A5B03FEF74AFC44E7C02337
:102B8000E94A5B0101212000FEF742FCC023A26854
:102B90005B05534033E7182301212000E34AFEF789
:102BA00037FCA3686B4025E7C02301212000DD4AE4
:102BB0005B03FEF72DFC0CE7C023DB4A5B01012120
:102BC0002000FEF725FCC023A2685B055340FBE60E
:102BD000182301212000D54AFEF71AFCA3686B4098
:102BE000EDE6D34804F07EF846E6C023012120003C
:102BF000CC4A5B03FEF70CFC38E6C023CA4A5B01F3
:102C000001212000FEF704FCC023A2685B055340AD
:102C100027E61823C54A01212000FEF7F9FB4246AA
:102C2000A3685A40130017E6C02301212000BD4AC3
:102C30005B03FEF7EDFBF0E5C023BB4A5B0101211E
:102C40002000FEF7E5FBC023A2685B055340DFE5EB
:102C50001823B64A01212000FEF7DAFB4246A3689A
:102C60005A401300CFE5C02301212000AD4A5B0389
:102C7000FEF7CEFBACE5C023AB4A5B01012120008F
:102C8000FEF7C6FBC023A2685B0553409BE51823F3
:102C900001212000A54AFEF7BBFBA3686B408DE530
:102CA000F023012120009F4ADB00FEF7B1FB73E512
:102CB00007239D4A01212000FEF7AAFBF023A2680A
:102CC000DB02534063E5002301212000974AFEF711
:102CD0009FFBA3686B4055E5C02301212000914A6A
:102CE0005B03FEF795FBA4E4C0238F4A5B0101213F
:102CF0002000FEF78DFBC023A2685B05534093E4E0
:102D0000182301212000894AFEF782FBA3686B404B
:102D100085E4C02301212000824A5B03FEF778FB93
:102D20006BE4C023804A5B0101212000FEF770FBA9
:102D3000C023A2685B0553405AE4182301212000F8
:102D40007A4AFEF765FBA3686B404CE4C02301217F
:102D50002000744A5B03FEF75BFB32E4C023724A37
:102D60005B0101212000FEF753FBC023A2685B0535
:102D7000534021E41823012120006C4AFEF748FB50
:102D8000A3686B4013E4C02301212000654A5B0364
:102D9000FEF73EFBFFF7F7FBC023634A5B0101210F
:102DA0002000FEF735FBC023A2685B055340FFF708
:102DB000E4FB1823012120005C4AFEF729FBA368ED
:102DC0007B40FFF7D4FBC02301212000554A5B0361
:102DD000FEF71EFBFFF7B3FBC023534A5B01012143
:102DE0002000FEF715FBC023A2685B055340FFF7E8
:102DF000A0FB1823012120004C4AFEF709FBA36821
:102E00006B40FFF790FBC02301212000454A5B0384
:102E1000FEF7FEFAFFF76CFBC023434A5B0101217A
:102E20002000FEF7F5FAC023A2685B055340FFF7C8
:102E300059FB1823012120003C4AFEF7E9FAA36858
:102E40007B40FFF749FBC02301212000354A5B038B
:102E5000FEF7DEFAFFF728FBC023334A5B010121AE
:102E60002000FEF7D5FAC023A2685B055340FFF7A8
:102E700015FB1823012120002C4AFEF7C9FAA3688C
:102E80006B40FFF705FB2B4803F0CCFFF9E583B25D
:102E9000042200212000FEF7C7F987E50122C3B212
:102EA000134301212000244AFEF7B2FA65E5C0234E
:102EB000012120001B4A5B03FEF7AAFA1FE5C0238D
:102EC000194A5B0101212000FEF7A2FAC023A26883
:102ED0005B0553400EE5182301212000134AFEF73D
:102EE00097FAA3686B4000E5C023012120000D4A3A
:102EF0005B03FEF78DFAE6E4C0230B4A5B01012178
:102F00002000FEF785FAC023A2685B055340D5E494
:102F1000182301212000054AFEF77AFAA3686B40C6
:102F2000C7E4C0460A0001000B0001000C000100CC
:102F30002C9B00109C9B00101F00010006262448BB
:102F400003F0D0FE7642FFF741FA0626214803F04F
:102F5000C9FE7642FFF73AFA4B469B6A494606930A
:102F60004B469B8D02AA938230311422280003F035
:102F700051FD832214230021200000955200FEF70A
:102F800021FF002806D0002004A9FDF7D5F904ABE5
:102F90000393ADE50622290004A803F03BFD049A43
:102FA000069B9A4202D00026FFF710FA02AB9A89DC
:102FB0009B8A9A42E7D00026FFF708FA064803F0FA
:102FC00091FEFFF79CFA044803F08CFEFFF7E2FA4B
:102FD0006C9B0010849B0010989A001070B506003E
:102FE0000D000E493836040082B014223031300012
:102FF00003F010FD832220001423002100965200CC
:10300000FEF7E0FE041E02D0200002B070BD0622D2
:103010003100280003F0FEFCF6E7C046E09B0010FC
:103020003823042200B5C2540023353283540132C0
:10303000835401328354030083B038330093022158
:1030400004236A32FEF7BEFE03B000BD00B5054B97
:1030500083B0C31800931A2224230221FEF7B2FE84
:1030600003B000BD1C080000F0B5040083B00229C5
:103070002BD801238B40002A24D10027DDB2260063
:10308000383608221249300003F0C4FC40234122A4
:10309000E5540023A3540132A3540132A354013256
:1030A000A7540132A3540132A3540132A35408227D
:1030B0000221200000961033FF32FEF783FE00202D
:1030C00003B0F0BDDFB23D00D9E701204042F7E791
:1030D000D89B001010B5006800F0D8F801384342C2
:1030E0005841C0B210BDC046104A8B01944663449B
:1030F00070B5C418002914D00D4B1B68002B06D0E6
:10310000002539269C4203D01B68002BFAD170BDE4
:10311000200004F055FB6560A5552368002BF1D114
:10312000F5E7200005F0D6FEE6E7C046D40800002B
:1031300078AC0020F8B54746CE468D0180B51F001B
:1031400043199846134B040043441B785B0703D490
:10315000C0BCB946B046F8BD96B2C12231000020CD
:10316000520004F0BFFB81460028F1D03900320044
:1031700004F07EFD084B48469C46084B654443449A
:103180001B68611998470028E2D0484604F0E8FC23
:10319000DEE7C0460D090000D4080000E408000086
:1031A000044B10B59C4689016144401804F052FB61
:1031B00010BDC046D4080000044B10B59C468901E0
:1031C0006144401804F068FB10BDC046D4080000FC
:1031D00010B5284B82B01B68002B17D0264C20005E
:1031E000FFF778FF00283DD1244BE25C002A2CD168
:1031F000234BE25C002A1ED1224BE25C002A0CD158
:10320000214B1B68002B03D0FDF7C2F802B010BDA4
:1032100001212000FFF798F8F6E700222000E25491
:10322000FFF714FF862301221B01E250164B1B6897
:10323000002BE9D1ECE700222000E254FFF7F0FE7A
:10324000104BE25C002ADBD0E7E700226921E25460
:10325000200000230092FFF767F8094BE25C002A88
:10326000CAD0E8E72000FFF72BF8044BE25C002A05
:10327000BED0EAE7040900200C0900206D08000018
:103280006F0800006E08000008090020D0231B060C
:103290005868C001C00F70473222014B1A60704756
:1032A000080900207C4B70B5C35805000C00DB07F3
:1032B00013D46368452B05D02E2B07D8774A9B0083
:1032C000D3589F46764BEA58012A3AD086231B01F1
:1032D000EB58744A934225D070BD00F0FDFE0029E2
:1032E00029D0FA220023920002F0FAFF01006E4B6F
:1032F0006288180003F096FD6168582900D98DE0B6
:103300006A4B8A00D358002B00D187E01900684827
:1033100003F088FD2E23E268E35CA168654803F0B2
:1033200081FDC6E7862301221B0100212800EA5007
:10333000FFF736FFD0E7FA21890002F08FFF010086
:10334000D5E7A268082A00D18CE0002ABED102226B
:10335000EA5086231B01EB58BBE7A368062B00D17C
:103360008BE00B2B06D891221201DA4013000122C8
:103370001A425AD1862304221B01EA50ACE7A36803
:10338000002BA3D1E368082BA0D102224A4BFF32C5
:10339000EA524FE0A368002B98D16388DB0758D529
:1033A0002E23E15C002970D1862280231201A958C6
:1033B000DB000B43AB508CE700212800FFF7FCFE3D
:1033C000862300221B01EA5086E7A368002B00D069
:1033D0007CE7E368022B00D078E70122374BEA5400
:1033E00028E0A368002B1DD186231B01EA580F2378
:1033F00019001140042928D080239B001343862202
:103400001201AB5065E7A368002B00D15EE7032BE8
:1034100014D0862302221B01EA505DE7284803F0FE
:1034200001FD77E7062BA5D150E7E3680F2BA1D16B
:10343000214BEA542348FCF7B3FF47E7E268002A30
:10344000E7D186221201AB5046E79A430E3B1A435E
:10345000D2E72E232800E15CFFF7AEFE86231B0196
:10346000EB5836E72100184B3031E858174BEB5832
:10347000984786231B01EB582BE7862280231201F5
:10348000A9581B010B43AB5023E72800FFF788FE28
:1034900086231B01EB581CE758080000649F0010AE
:1034A0005C080000010E00003C9F0010C0A000104E
:1034B000509F0010589F00106E0800006D0800001B
:1034C000549F0010D131001064080000680800000B
:1034D000F8B54746CE46040080B588461600FCF78E
:1034E00085FF1F4F00213D682000002D0ED0FEF704
:1034F0002BFF320041462000FFF7B6FD0500FCF728
:103500007DFF2800C0BCB946B046F8BDFFF7ECFD12
:1035100001212000FFF7E8FD124B1420E554802321
:10352000D0251B0499462D06AB61FCF79DFF4B4649
:1035300032206B61FCF798FF00212000FEF71EFF90
:10354000051EDCD1084B2000E118FFF747FD3222B1
:10355000064B07481A603860FCF722FFC9E7C046EF
:103560000409002054080000880900000809002010
:10357000D1310010094A10B59446402483006344B9
:103580001A68C00062408034144080225201134304
:103590001C60034B9C466044416010BD04C0014068
:1035A00000400140074B80009C4660440368C9000E
:1035B00092000A435A400C231A4080235B010343C4
:1035C0001A60704704C00140084B80009C4660446C
:1035D000002905D0802302229B0103431A60704713
:1035E000C02302229B0103431A60F8E704C0014094
:1035F000D0231B0630B505001C681048631E9C4193
:103600008446072030236442284023408000EC0891
:10361000814020000A4D3C3063448000A4004151A9
:103620001B19002A04D0802292011343196030BD77
:10363000C022920113431960F9E7C04600410140DE
:10364000004001400123D02283401206936293611F
:10365000094A40219446830063441A68C0004A40E6
:10366000803111408022520113431960034B9C4664
:10367000052360444360704704C00140004001409E
:1036800001238340002904D0034A1360034A1360D6
:103690007047034A1360FBE780E200E000E100E0CE
:1036A00080E100E001238340014A13607047C04677
:1036B00000E200E0024B10309B688000C058704769
:1036C00000ED00E070B50D00EFF3108672B60F4A02
:1036D0001368002BFCD0BFF35F8F0D4B10309B683D
:1036E00084001B590B4A934203D09D4201D001F044
:1036F000D7F8074B9B681D51BFF35F8FBFF35F8FF8
:103700000022024B1A6086F3108870BD240100D09D
:1037100000ED00E0CD010010F0B5DE4657464E4604
:103720004546E0B50C0083B0EFF3108A72B65A4AF2
:103730001368002BFCD0BFF35F8F102291468144A9
:103740004A46564B96009B689D59554B98469D425C
:1037500005D0A54216D0534FEB1B2F2B14D94F4B3E
:103760009B689D51BFF35F8FBFF35F8F00224A4B71
:103770001A608AF3108803B0F0BCBB46B246A94673
:10378000A046F0BD1D00EAE7012383409B465A4650
:10379000454B1B681A4000925A46444B1A60BFF3CF
:1037A0005F8FFCF760FD0190002803D0814501D0B8
:1037B00001F076F801232A009A4393689C4208D1CD
:1037C0005FE04B005B189B00FB189968A14211D089
:1037D0001A00062151560029F3DA009B002B05D070
:1037E0005A46334B1A60304B1A60B8E75A462F4B93
:1037F0001A60B4E706215956002921DB4A00501807
:1038000080003C188046A0689860E079D871062056
:1038100020569871002824DBA488F81A6405241522
:1038200044440019E0240005400D24022043988000
:10383000204B521818789200BA1890711970CCE782
:103840000199002910D1FF3191711B4991801949CB
:103850000A789A71194ADB1B5B415A43120D0A70B0
:10386000BBE7BD200002E2E7154A1649D21A083A22
:103870005002400D01439980134952080A43DA80EF
:10388000ABE70621515613000029B7DA019A002A46
:10389000EAD14546DBE7C046240100D000ED00E058
:1038A000CD010010EC03002000E100E080E100E029
:1038B00080E200E004AE002000BDFFFFAAAA0000E5
:1038C0002604002000F0FFFF00F8FFFFF8B50125F7
:1038D00004000543FCF7C7FCEFF3108C72B6214AD5
:1038E0001368002BFCD0BFF35F8F1F4E2100B76819
:1038F0001E4A1F4B891A49414B431B0D59B2830085
:10390000F858A8421CD00623D3568B421CD0122351
:10391000D3568B4222D01E23D3568B4220D02A234B
:10392000D35603208B4210D0124B1A781970A27113
:10393000BFF35F8F00220B4B1A608CF31088F8BD29
:10394000B2680D48D050EFE7002043001B189B00E1
:10395000D218FF239371094B9380E5E70120F4E728
:103960000220F2E7240100D000ED00E0EC0300208B
:10397000AAAA000004AE0020CD01001000BDFFFF88
:10398000054B064A1360064A136053609360D36088
:1039900013615361936170478080808000E400E090
:1039A00004E400E0024B9C466144890001607047DA
:1039B0004000003483680B4810B58446614462447B
:1039C0001201090159189B185C684A680120944249
:1039D00001D802D00020C0B210BD1A680B689A420C
:1039E000F9D8F7E7FFFFFF0F0A4B1968EFF31080D4
:1039F00072B60A68002AFCD0BFF35F8F1B68BFF362
:103A00005F8F00221A6080F3108840BF00200021E1
:103A10007047C046BCAD0020F8B5574645464E46F7
:103A2000DE46E0B599460CAB1C780DAB1B78070061
:103A300090469A460568002C44D1AC7B002C3BD0C4
:103A4000660029683619033E89194B78AB73002B41
:103A500000D1EB7300238B704B700B702E4BE21870
:103A6000BB6812019B1842461A604A465A600A9A7D
:103A70009A600B9ADA6000238B704B700B706B7B33
:103A80009B46002B32D022005946A8686B689847A5
:103A900000281DD05B46584629685B005B448E19A0
:103AA000033BB070CA18CB5C002B00D073705B4630
:103AB00014706B735C451AD0F0BCBB46B246A94685
:103AC000A046F8BD660029683619033E8919C5E786
:103AD0005B465B002A685B44033BD3189C709119DA
:103AE000925D002A00D05A705B460B706C734246A0
:103AF0004B46387D00F050FB051E02D05346002B8C
:103B000004D00E9B002BD7D01D70D5E7210038685C
:103B100000F06AFDF5E7C046FFFFFF0FF0B5DE4697
:103B20004E46574645460023E0B58DB00A936B4B91
:103B30008200D3580B90994600239B464B4607932F
:103B400000F0CAFA079C06000F006268EFF31085C8
:103B500072B61368002BFCD022000794BFF35F8F6E
:103B60002468637B9946002B66D092685C4B904634
:103B70004B441B01984443461A685B6810001900C7
:103B8000801BB94100295EDD0B9800F005FB002386
:103B90000026984600279A46079C6368BFF35F8F0C
:103BA0005A461A6085F310885346002B08D1002826
:103BB000C6D10DB0F0BCBB46B246A946A046F0BD8A
:103BC0000A9B414618024B461843D047089009917A
:103BD0006268EFF3108572B61368002BFCD007946F
:103BE000BFF35F8F0899099A002A47DB114303D07E
:103BF000079B1B69002B5CD1079B1B68D97B0029A5
:103C000006D01A684800411852184946033A5170C4
:103C10004A46DA734B46079A013BD168CA5C0132C7
:103C2000CA545B46079A13615368BFF35F8F5A46C5
:103C30001A6085F3108883E7002300269846002742
:103C40009A460020A8E7002901D100289CD1002134
:103C5000200000F04BFC43461E685F689B68079A93
:103C60009A464346DB689846D3684B44013B1B7831
:103C70000A931B020343136100208DE72369002B85
:103C8000BAD033003C005B1A94411A002300A742CB
:103C900019D89F421BD059460491012103914946EE
:103CA000029141460191514607980091FFF7B4FEF9
:103CB000B7E700F011FA089A099B06000F00921965
:103CC0007B419942E5D901225242D317E3E796425C
:103CD000E1D901225242D317DDE7C04694AC00205F
:103CE000FFFFFF0FF8B557464E464546DE46E0B5A6
:103CF000404D81468A466A68EFF3108872B61368B1
:103D0000002BFCD0BFF35F8F2E68B47B002C38D023
:103D1000670033683F19033FDB195A78B273002AF2
:103D200000D1F273344AA118AA6809015218494611
:103D3000116051465160314991600021D160997004
:103D400059701970737B9B46002B36D02200594660
:103D5000B06873689847002821D05B4658463168A0
:103D60005B005B44CF19033BB870CA18CB5C002BD7
:103D700000D07B705B46147073735C451ED00026C8
:103D800027E06B68BFF35F8F1C6088F31088012009
:103D90004042F0BCBB46B246A946A046F8BD5B46D1
:103DA0005B0032685B44033BD3189C70D119D25D31
:103DB000002A00D05A705B460B7074734A46534613
:103DC000287D00F0E9F9061ED9D02100286800F00E
:103DD0000BFCEB681B19013B19786B68BFF35F8F15
:103DE00000221A6088F310880020002ED1D108022A
:103DF0002043CEE734040020FFFFFF0FE939001015
:103E000010B5124C6368002B04D00A211048FFF74C
:103E1000C9FD10BD23000F4A1021206800F07EFA72
:103E2000032000F04DF9032000F026FA03200A4990
:103E300000F06CF9FCF728FC084B9C460323604417
:103E40002375074B80006060DC60DEE734040020EF
:103E5000BCAD0020B53900101D3B001040000034FF
:103E600094AC0020F0B504000D0006267642F7174A
:103E7000C64636196F4100B58F4213D810D000F0F6
:103E80002BF932003B00121A8B41002B14DC002B63
:103E900037D02900200000F029F980BCB846F0BDD9
:103EA0008642ECD90026002700F016F932003B00CC
:103EB000121A8B41002BEADD30003900FFF712FFA8
:103EC0000028E6DB00239846BC460F4A0F4F7B6A6A
:103ED0009C4504D8B96A8E42DBD99C45D9D111687A
:103EE000EFF3108072B60B68002BFCD0BFF35F8F2E
:103EF0001368BFF35F8F4146196080F3108820BFBD
:103F0000E5E7002AC5D0D7E7BCAD0020004005405A
:103F100070B5060000F0E0F8FA2204000D0000235E
:103F200030000021920002F019FD001969418D4214
:103F300005D802D0FFF796FF70BD8442FAD9012060
:103F40004042C117F6E7C046F8B5CE46474680B5B1
:103F500006000C00FFF7C6FE031E11DC284A0020F5
:103F6000536A9C4203D8926A0130B24203D3C0BC68
:103F7000B946B046F8BDE31A5A1E9341D8B2F6E7E7
:103F800020BF204D6968EFF3108872B60A68002AD6
:103F9000FCD0BFF35F8F2868D9B2427B8A4221D020
:103FA000FF2207681A40B9465700BC464F46944462
:103FB0006744033FBF78002F0FD0EF681B0ABA1881
:103FC000013A1278DBB29A4216D06B68BFF35F8F6A
:103FD00000221A6088F31088C0E72A699342F4D15E
:103FE0002F61F2E7FF22EF681A40BA18013A1B0A64
:103FF0001278DBB29A42E8D100F0F6FAE5E7C04663
:104000000040054034040020F0B5D6464F464646F1
:10401000C0B5EFF305823F23134018001038EFF3CB
:10402000108C72B620490A68002AFCD0BFF35F8F5B
:104030000122170087401D4C1600A24667631C4CE6
:104040002578A0462C00C4402640224209D1BFF367
:104050005F8F0E608CF31088E0BCBA46B146A8466C
:10406000F0BD5246566A134A8400A25896420ED3B7
:104070004246114BBD43E3581570BFF35F8F0022DA
:104080000A608CF31088002BE6D09847E4E70B4ACF
:104090009B00904643441A681A60BFF35F8F002369
:1040A0000B608CF31088D7E7280100D00040054052
:1040B00008AE0020C0AD0020C0060020D03F054063
:1040C00010B5034B01001800024AFCF73BFA10BD83
:1040D00000AE002024A20010034B596A0A00986A1F
:1040E000596A8A42FAD1704700400540064A536A2D
:1040F0009942FCD807D1044B02E05A6A914202D19E
:104100009A6A8242F9D370470040054070B50400B6
:104110000D00EFF3108672B61A4A1368002BFCD01C
:10412000BFF35F8F002D1BD02000FFF7C3FA1649A5
:1041300081420AD02000FFF7C5FA01212000FFF7D5
:104140009FFA0123A340114A1360114BA400E550CC
:10415000BFF35F8F00220B4B1A6086F3108870BD8F
:104160000121A1400A4BA200D5500A4B20001A7829
:104170008A4305491A70FFF7CFFA00212000FFF7A4
:104180007FFAE5E7280100D00940001038600540BB
:10419000C006002008AE0020F0B54F46D646464681
:1041A000C0B507002F4C616A0D00A66A616AA9427A
:1041B000FAD18B4208D805D00120E0BCBA46B146FE
:1041C000A846F0BDB242F7D9EFF3108A72B626487E
:1041D00001680029FCD0BFF35F8F0125BD40234952
:1041E000204C8846097889462943C9B28C46414605
:1041F00060460870391D890065630A511C49B80082
:104200004350216A0020294219D0616A0800A66A39
:10421000616A8142FAD18B4219D801D1B24216D8D3
:10422000CC451DD00F4B1F221D625D6301233A4018
:104230009340104A0120136043464A461A70BFF368
:104240005F8F0022084B1A608AF31088B5E70020C0
:10425000BFF35F8F0022044B1A608AF31088ACE72B
:104260000120ECE700400540280100D008AE002006
:10427000C0AD002080E200E0EFF3108C72B60A4976
:104280000B68002BFCD0BFF35F8F01238340074AEC
:104290000748136202789A430270BFF35F8F0023CE
:1042A0000B608CF310887047280100D00040054057
:1042B00008AE002070B5050014001600002915D0C6
:1042C0000C00002A12D080686B6898472968002883
:1042D0000ED073009B196200033B1219CB18033AEE
:1042E0009C7088188A5C002A15D10670200070BD69
:1042F00063001B197200033B9219CB18033A9E709E
:1043000088188A5C002A02D104703400EEE75A70E3
:1043100004703400EAE75A700670E7E730B583604E
:104320000023CCB243730133047342608373C473BC
:104330000D000068012C06D9421C0133DBB213705A
:1043400003329C42F9D1FF2129404B005B18C01871
:1043500000230338437030BDF8B505000C1E07D0AC
:10436000630001681B19033BCB185A78002A01D15E
:104370002000F8BD500080180338091800204F783D
:104380004870210058702800FFF794FF390006009C
:104390002800FFF7E1FF0400002EE9D0002826D016
:1043A00031002200A8686B689847296800280FD060
:1043B00063001B197200033B9219CB18033A9E70DD
:1043C00088188A5C002A00D05A7004703400CFE745
:1043D00073009B196200033B1219CB18033A9C70BF
:1043E00088188A5C002A00D05A700670C0E7340032
:1043F000BEE7C046F0B557464546DE464E46E0B5F8
:104400000D006B0001685B19DF1E0400C85D83B0FE
:104410000192CA1900284CD043001B18033BCB184B
:104420005E78B446002E16D1019E002E3ED0E67B6B
:10443000002E04D073009B19CB18033B5D70E5730D
:1044400000282FD10023537003B0F0BCBB46B24606
:10445000A946A046F0BD72006244033A8A1851781A
:1044600088460021517089465970320001002000B1
:10447000FFF720FF43468246002B07D05B002168F0
:104480004344033BCB185A78002A16D14246514682
:104490002000FFF70FFF2168019BCA19002BC6D12E
:1044A0000028CFD043001B18033BCB180021997084
:1044B000C8E7019B002BBAD1C4E75000801803382D
:1044C000091848788346484648705870414620008D
:1044D000FFF7F0FE594680462000FFF73DFF4146BA
:1044E00002002000FFF7E6FE8046CFE7F0B5574612
:1044F0004546DE464E46E0B583B00191457B04005B
:104500006B0000685B19DF1EC15DC21900294ED027
:104510004B005B18033BC3185E78B446002E18D1DD
:10452000019E002E40D0E67B002E04D073009B1924
:10453000C318033B5D70E573002931D100232800C7
:104540005370617303B0F0BCBB46B246A946A046A7
:10455000F0BD72006244033A821850788046002011
:1045600050708146587032002000FFF7A3FE43468A
:104570008246002B07D05B0021684344033BCB18E5
:104580005A78002A17D1424651462000FFF792FE82
:10459000019B01002068C219002BC4D10029CDD095
:1045A0004B005B18033BC31800209870C6E7019BC3
:1045B000002BB8D1C2E7500080180338091848789A
:1045C000834648464870587041462000FFF772FE07
:1045D000594680462000FFF7BFFE414602002000FA
:1045E000FFF768FE8046CEE770B5040000292CD0A6
:1045F000437B8B422ED005684800401803382818AA
:104600008278002A21D053009B18033BEA5CEE1805
:104610008A4202D11BE0002A08D053009B18033BBA
:10462000EB185A788A42F6D142785A700023012258
:10463000837043702000FFF7DDFE617B02002000E5
:10464000FFF738FE6073012000E0002070BD437862
:104650003370EBE701221900FFF7CCFE60730120F5
:10466000F4E7C04610B50400FCF70EF80100200086
:10467000FFF798F9FF232371BFF35F8F10BDC0468A
:1046800010B50400FCF700F801002000FFF78AF9DC
:10469000FF23A380BFF35F8F10BDC046F8B50400B1
:1046A00006200D0000F05AFA002844D02A4B2B496E
:1046B000E21853425A418023DB039C469205284B63
:1046C00062441A60274B1A6010008B689843FBD134
:1046D000214B254AE31859424B4180215B00490098
:1046E0009952062000F03AFA2900C00001F0B6FD08
:1046F000C30921D140270121260080256162A362E0
:1047000000232C36AD0135432B60062000F026FA3D
:104710003900800001F0A2FD6022E36A53400E32AE
:104720001A4080235B0133431A60104B236310232C
:104730002B600D3BA364F8BD0D4A934203D90023BF
:104740000C4F0D49D8E77F220240013252089F01E9
:104750001900BF181300CFE70080FCBF00C0004065
:1047600000E0004000F00040E8AD00200103000040
:10477000FEFF0000C0FF3F00FFFF00002C4B2D4A52
:1047800070B51A602C4A2D4B2D491A6014008B68A5
:104790009C43FBD12B4D2C4EB54208D2013E761BDB
:1047A000B60808CD984723000134B342F9D100F090
:1047B0007DF8264A214B1A60214A9368DB43DB01CE
:1047C000DD09002BF9D14022214B224C224E9A6761
:1047D0005A671A67DA66B44208D223682000002BB1
:1047E00020D00834FFF74CFFB442F6D31B4C1C4ECC
:1047F000C022B168200002F00DF9B460FBF736FF6B
:10480000FFF7BEF8FFF7FCFA164C174EB44208D279
:10481000013E361BB60808CC98472B0001359E4256
:10482000F9D170BD0834FFF71DFFB442D5D3DDE7E1
:1048300000E00040BFCDFBFEFE7F3C0000F00040EA
:1048400000C00040A0040020B0040020FFFFFF01D2
:1048500000F0014098040020A00400200000002087
:1048600000ED00E0B0040020B804002000BEFDE729
:104870000FB400B5084883B002F034FA049B002B53
:1048800007D005A91800019101F09AFC034802F035
:1048900029FA00BEFDE7C04648A20010D49A0010D5
:1048A00010B50148FFF7E4FF58A2001010B50C2026
:1048B00082B000F0ADF9FBF7D1FE00280ED0854B99
:1048C000854A1A605A609A60DA601A615A619A6180
:1048D000DA611A62814A5A6202B010BD804CA06748
:1048E00000F09EF901227F4B1A60636C012BFCD112
:1048F00003227D4B1A607A4A936B012BFCD1013362
:1049000001217A4A7A480093043300F02DF90523F7
:10491000784A00930121784800F026F9774B5A68CD
:10492000FF2A02D8802252005A6080226E4B694CC6
:1049300012011A602169002905D0606901F08EFC1E
:1049400001300138FDD1E0226C4B6D4819680A40F6
:10495000026002221968514001320A4004210260BB
:104960009A681142FCD08021664A090111608022B8
:1049700052005A60644B2361644B5968FF2900D888
:104980005A6003220121574B1A60604A936819420A
:10499000FCD0E023106803405D48036012680323E5
:1049A0004A4002211340594A036093681942FCD0DF
:1049B0008021584B090119608021574B49005160F3
:1049C0006361564B5A68FF2A00D859608022544BC5
:1049D00012011A60E169002905D0606901F03EFC0E
:1049E00001300138FDD1E0234C4A11680B404D499C
:1049F0000B6080214C4B090119608021364B490026
:104A00005160E361494B5A68FF2A00D859608022FF
:104A1000474B12011A60216A002905D0606901F034
:104A20001DFC01300138FDD1E023404A11680B40E4
:104A300040490B608021404B0901196080235B00D5
:104A400053608022244BD20223623C4B596891422E
:104A500000D25A6080223A4B12011A60616A002922
:104A600005D0606901F0FAFB01300138FDD1E02387
:104A7000324A11680B4033490B608021324B0901E7
:104A800019608023DB025360144B63622F4B5A681A
:104A9000FF2A02D8802252005A6080222C4B120139
:104AA0001A60A169002905D0606901F0D7FB0130C7
:104AB0000138FDD1E023254A11680B4025490B60E0
:104AC0008021254B0901196080235B005360124B44
:104AD000A36101E7CC080020006CDC021BB70000DA
:104AE000008000403CB0004030B00040002F6859CA
:104AF00000800240008C864700C0024030800040A9
:104B00003090004030A00040001BB7003C800040C7
:104B10003C9000403CA00040405973075480004046
:104B200054B000405490004054A0004060800040C9
:104B300060B000406090004060A000406C80004089
:104B40006CB000406C9000406CA000404880004079
:104B500048B000404890004048A00040014B800011
:104B6000C0587047CC080020F8B504000C2017008E
:104B70001D000E0001F072FB43011B1A9901C91AB6
:104B8000C90009188901380001F068FB069B290457
:104B90001B0319432368002B20DB194B194DE31825
:104BA0005A4253418022520194461B03164A6344E1
:104BB0001360164A13601F00AA689743FBD1C023F5
:104BC000221D9B01134321222660A0601A602268E7
:104BD000002AFCDA0822E1601A60F8BD3F2322684F
:104BE0001340B342D9D1A3681B051B0D8342D4D116
:104BF000EE22E368D20213408B42CED1EDE7C046ED
:104C00000040FDBF00C0004000E0004000F0004058
:104C10008023024A9B000343D36270470080054013
:104C2000AA23064A1B0113602F230549D360054BB5
:104C300019605368002BFCDA7047C0460040024000
:104C400000B0FA00006002407047C046F8B5574611
:104C50004546DE464E46E0B598460A9B06009A4613
:104C60000D9B0F00934615009B0710D10B9B0C9AD0
:104C700093420CD213005C460B9A9D1A5D442200AD
:104C80004346013439002020B047A542F7D10B9CA0
:104C90006319002C09D01D0053462A1B013C185DE6
:104CA00039004346B047002CF6D10D9B9B070ED52B
:104CB0005B46EC1A0C9BA34209D999462A0043464D
:104CC000390020200134B0470135A145F6D828002D
:104CD000F0BCBB46B246A946A046F8BDF0B54F466B
:104CE0004646D646C0B584B098460EAB1B78129F98
:104CF000994694460D9C109B119EBA0725D4002E10
:104D000061D19C4200D3C0E001223A4092461F2C60
:104D100000D9B9E00C9A551E302201E0202C03D0B6
:104D200001342A55A342F9D85246002A0DD0A64292
:104D30000BD90C9A551E3022202C02D155E0202C84
:104D400053D001342A55B442F9D1FA062DD57A054B
:104D500054D4002C4ED10F9B102B00D188E00F9B18
:104D6000022B19D030230C9A012413704B46002BD0
:104D700020D02D230C9A135501340C9B62460093CE
:104D80000397434602960194FFF760FF04B0E0BC2E
:104D9000BA46B146A846F0BD01240C9A60331370A0
:104DA00030220C9B1B191A700134202CE5D04B4685
:104DB000002BDED17B0730D43B07DED520230C9AB5
:104DC00013550134D9E7012215003D40AA463A4265
:104DD0001CD04A46002A2BD10C323A4228D19C42A0
:104DE000A5D21F2C96D9202E15D92024FA06C4D579
:104DF0007A0503D4A3421DD0B4421BD00F9B102BC5
:104E000023D0022B0ED0202CB7D0C9E79C429CD2D5
:104E10001F2C00D87EE7202497E72B230C9A1355EC
:104E20000134AAE7202CA8D00C9B1B19013438E0D0
:104E3000013ED4E7631E012C00D18CE70F9A102AA3
:104E400025D0022A2AD01C00AAE7BB0607D4202CB2
:104E500093D00C9B1A19013478231370D3E7202CBC
:104E600000D18AE758220C9B1B191A700134CAE73B
:104E7000BB0604D478230C9A0124137090E75823BE
:104E80000C9A012413708BE7202400265DE7023C76
:104E9000BA06E7D40C9A12191C00DDE70C9A924668
:104EA000534462221A70AEE710B5002800D110BD3D
:104EB00001F0C8FEFBE7C0460B0010B5002802D089
:104EC00049681B68984710BDF0B5DE4657464E4608
:104ED0004546E0B59BB09B46249B89469846259B5A
:104EE0000B900C924046424619009A4601F077FC1E
:104EF000002800D0D8E0012240465146774B52426C
:104F000001F068FC002800D0CEE001224046514666
:104F1000734B524201F048FC002800D0C4E000224C
:104F200000234046514601F03FFC002800D0B9E183
:104F3000424653460A9209938023289ADB001A407E
:104F40000E92289A1A4201D1062326930A9A099BA7
:104F50001600134300D0C7E0289B002500261B0540
:104F600000D49BE100230D93269A0D9B9A4200DC0E
:104F70009FE1D31A013B26938023289ADB001A4332
:104F80000023002728920D93279B0024BB4200D9C1
:104F9000DC1B0223289A1A400E92289A134203D04F
:104FA0007B427B415B421C400D9B002B07D00A9843
:104FB00009992A00330001F09EFB0A900991002212
:104FC00000234046514601F0EFFB002805D0802029
:104FD00000068446099961440991289A414B0B9D2A
:104FE00013400493269B0A9A0293099B0394009210
:104FF000019349465B4628000C9A00F08BF90400A7
:10500000002F62D0289B220098061F23C0179843C8
:10501000631C984649465B466530A8470D9A0025B3
:10502000D317D4185C40D30F9A46013F01E0202DDE
:1050300013D00AAA94461F23200063440A21013595
:105040005E1901F00BF93031317020000A2101F0B6
:1050500005F926000400092EE9D80523069300234C
:1050600004930A330393534605970B9F029312ABA5
:10507000009342465B46494638000195FFF72EFEF5
:105080000E9B0400002B20D00C9BC51A279BAB4223
:105090001BD91E0022005B46494620200135B84737
:1050A0000134AE42F6D810E0289B42460493279B79
:1050B00049460393269B0B98029353460092019313
:1050C0005B460C9A00F026F9040020001BB0F0BCEF
:1050D000BB46B246A946A046F0BDC046FFFFEF7FE3
:1050E000FFFFEFFFFFF7FFFF734B099F9C46780020
:1050F000400D604401F086FB704A714B01F015FBD6
:10510000704A714B01F0F2FA3B03704A1B0B1A43D1
:1051100004000D00300011006D4B002201F0E1FA97
:105120006C4A6D4B01F001FB02000B0020002900CE
:1051300001F0DCFA01F07EFB0D9001F063FB674AA1
:10514000674B04000D0001F0F0FA0022654B01F0FE
:10515000CDFA01F06FFB644A0600644B2000290081
:1051600001F0E3FA040030000D000F9601F04AFB55
:105170005F4A604B01F0D9FA02000B0020002900C1
:1051800001F0AFFA02000B0006000F0001F0CDFAAB
:10519000320004000D003B003000390001F0A6FA97
:1051A000002210901191544B2000290001F0A3FA25
:1051B0000022524B01F09AFA02000B002000290055
:1051C00001F099FA00224E4B01F090FA02000B0018
:1051D0002000290001F08FFA0D0080210400320028
:1051E0003B000020C90501F07CFA02000B00200002
:1051F000290001F07BFA02000B001098119901F0D0
:105200007AFA0022314B01F071FA3E4B0F9C9C461A
:1052100064440022230501F088FA05000E00020014
:105220000B000A98099901F0BFFA00280AD00D9BDB
:105230002800013B31000D930022304B01F05BFA56
:1052400005000E00C6270D992B0063318F42BF4128
:1052500028997F420437090500D495E6334300D1ED
:1052600082E6099C284A2100284B0A9801F0AAFAF4
:10527000002808D000222100254B0A9801F094FA5A
:10528000002800D070E6269B002B00D17CE60E9B08
:105290005A1E9341269AD31A269375E600230427B3
:1052A0000D9371E643460A9380231B0653440993EA
:1052B00042E6002326935FE601FCFFFFFB799F5047
:1052C0001344D33FB3C8608B288AC63F0000F03F29
:1052D0000000F83F61436F63A787D23F71A379094C
:1052E0004F930A400000E03F1655B5BBB16B02403A
:1052F000EF39FAFE422EE63F00002C400000244029
:1053000000001840FF0300002D431CEBE2361A3F5B
:1053100080842E41F0B54E46DE4657464546E0B500
:1053200097B09946209E219F229B834698460791DD
:105330000C923B0032003000390001F050FA002896
:1053400000D0ADE1012230003900CC4B524201F0D7
:105350002BFA002800D003E1012230003900C84BAD
:10536000524201F037FA002800D0D9E00022300084
:105370003900C44B01F02EFA002800D0BBE0002217
:1053800030003900C04B01F00FFA002800D0B2E025
:10539000002200233000390001F006FA002800D076
:1053A000D3E000230D93249B5B0501D4062398468C
:1053B00008AB9C461722002430234146624404E097
:1053C000013413550139202C01D00929F8D8884619
:1053D0003000390001F02EFA4246AC4BD2009B1847
:1053E0001A685B6805000892099301F00BFA020045
:1053F0000B003000390001F074F9089A099B01F0A4
:1054000094F90A900B9101F039FA824601F0F6F90D
:1054100002000B000A980B9901F063F900229C4BE3
:105420000A900B9101F0D6F9002800D1E2E00123A7
:105430009C46E244504601F0E1F902000B00089856
:10544000099901F0B7F9002802D000239A460135E6
:105450004346002B00D18BE008AB17269C460895ED
:105460006644554614E001235B4243440A21280068
:105470009A4600F0F3FE01343031371939702800B4
:105480000A2100F0EBFE092D00D8D0E0D04605003F
:10549000202CE8D10EAB98460323249A1340012B0D
:1054A00000D0E8E0239A2023002A1DD00D9A002A7C
:1054B00000D0FDE024990C320A4215D0239A013A1B
:1054C0002392239A9A4200D805E108AA944617210C
:1054D00030226144202B07D023980133CA548342E1
:1054E00000D1E9E0202BF7D1249A01930392239A6B
:1054F000434602921EE0249B58460493239B009649
:105500000197039343460C9A029307994B46FFF782
:10551000DBFC17B0F0BCBB46B246A946A046F0BDC6
:10552000249B5B070ED403225A4B249901920391CA
:1055300023990291009358464B460C9A0799FFF71E
:1055400085FBE6E70422544BEFE73B0032000020E6
:10555000002101F0C6F8012306000F000D9322E799
:10556000249B0393239B0293042301934B4BE1E77A
:10557000280001F047F902000B003000390001F06B
:10558000B0F8434B002206000F0001F00DF90EABFE
:10559000984600280AD10022300039003C4B01F027
:1055A00019F9002802D1EB0700D50135202C00D1D4
:1055B00072E708AA94461723280063440A2101349D
:1055C0001E1900F023FE3031280031700A2100F04E
:1055D0001DFE051EEAD10323249A1340012B6DD032
:1055E000202C48D00D9B002B14D02D224146631C4B
:1055F0000A5579E700220A980B99254B01F0D4F857
:10560000002800D024E75346002B30D101239C46CC
:10561000E2441DE7249B5B0724D4249A230012074D
:1056200000D461E72022414601330A555CE7574622
:10563000089D202C00D12DE7220030214046002F6C
:1056400009D00132B154202A00D123E7831A013B4B
:10565000E318002BF5D10EAB98462E234146541C7F
:105660008B54A3E72B224146631C0A553CE7DB071A
:1056700000D4EDE6CAE7202336E7C046FFFFEFFF80
:10568000FFFFEF7F65CDCD4165CDCDC118A40010E2
:105690000000E03F6CA2001064A2001074A2001091
:1056A000249B0393239B0293032301930C4B41E719
:1056B000239A013A239217E7040091E7239B002BDA
:1056C0008ED00D9B002B08D10C222499230011426F
:1056D00000D1F6E6F2E61C0082E72300EEE6C046C3
:1056E00070A20010F0B5DE4657464E464546E0B57E
:1056F000A1B01C002A9B92460993B94AB94B814636
:105700008B461A60002900D12BE120780027002861
:1057100000D12DE1B44B5E460893B44B0C9309E0E5
:105720003A00534631007D1CC8472F0001342078D1
:10573000002871D02528F3D110239B460C3B9846B6
:10574000023B00229C460134207825000300203BC8
:10575000DBB2102B03D808999B00CB589F4603005F
:10576000303B092B6BD9002398462A2800D18AE0C8
:1057700000230A932E2800D176E00300683BDBB2B9
:10578000122B1CD89A499B00CB589F460123013409
:105790001A43D9E7634601341A43D5E74346013437
:1057A0001A43D1E75B4601341A43CDE7082301349D
:1057B0001A43C9E780235B0068781A4301356728DC
:1057C0000AD824281DD90300253BDBB2422B18D868
:1057D0000C999B00CB589F460300693BDBB20F2B13
:1057E0000FD80121834C9940A4460C400B94644689
:1057F000214200D002E20A2B00D1E1E0072B00D1C8
:10580000B8E07B1C98463A00534631006C1CC847F0
:105810002078474600288DD1B3463C00BA4501D8D0
:1058200053465F1E53463A0059460020C8472000A1
:1058300021B0F0BCBB46B246A946A046F0BD00234D
:1058400001009800C0180135400040182978030075
:1058500008003038303B0928F3D998460023080067
:105860000A932E2800D088E780236878DB001A434B
:105870000300303B691C092B00D807E12A2800D11E
:1058800016E10D0079E7099B02CB8846002903DB6E
:1058900060780993651C6BE702210A43414649423F
:1058A000884660780993651C62E768786C2800D1A7
:1058B00023E280235B001A43013580E780239B00AD
:1058C00068781A4301357AE76878682800D11AE2C7
:1058D000802301351A4372E7462800D18BE1072166
:1058E000099B0492424607338B43190003920A9A9C
:1058F000484602920CC90092019309913A0053461E
:105900003100FFF707FD6C1C070010E77B1C984671
:105910003A00534631002520C84747466C1C06E72D
:10592000920700D431E2099B3A0001CB31009B463B
:10593000C0B25346C84743467C1C4744012B00D89D
:10594000FBE2A8464D462200534601343100202098
:10595000A847BC42F7D1A9465B46454609936C1C53
:10596000E5E6254B207899460027002800D0D1E6AF
:10597000002453E7099B190008C98846002B00D171
:10598000A6E021210A43934610A98C461F220F212D
:10599000624409958C4615000B9C02E0202C0CD02B
:1059A00013006046184001003731092800D8073934
:1059B000013429551A090F2BF0D8099D0B9490E05A
:1059C000099B02CB12930A9B8B46002B7AD1087855
:1059D0000221494200281AD001315C4659440FE0A7
:1059E000E5560010E81200207CA200100CA3001065
:1059F000C0A2001041900000494C00108C4203D01E
:105A000063780134002BF9D15B46E31A0B938023B2
:105A10001100DB00194009911A4204D00A9B0B992E
:105A2000994200D90B930223190011400D911342A2
:105A300000D18BE1002800D173E1099B002B00D13C
:105A400042E10A9B3A009C465B46BC44DB1B644631
:105A50009B464B460994A9461D0009E05346310078
:105A6000571CA8475B46D85D002800D155E13A0095
:105A70009442F3D12B004D469946099F0D9B002B74
:105A800000D04EE1129B6C1C099350E600230400E9
:105A90009800C0180131400000190C780300200064
:105AA0003038303B0928F3D920000D000A9364E612
:105AB000099B023501CBC143C91708400A900993DD
:105AC00028785AE608780028A1D00A9B591E83E757
:105AD000102110008843113108438346520500D439
